:020000040800F2
:10000000000003205546030809B7020825B7020877
:1000100041B702085DB7020879B702080000000086
:10002000000000000000000000000000AD750008A6
:1000300095B702080000000019780008B1B702085F
:10004000A5460308A5460308A5460308A5460308D8
:10005000A5460308A5460308A5460308A5460308C8
:10006000A54603080B030008A5460308A546030898
:10007000A5460308A5460308A5460308A5460308A8
:10008000A5460308A5460308A5460308A546030898
:10009000A5460308A5460308A5460308A546030888
:1000A000A5460308A5460308A5460308A546030878
:1000B000A5460308A5460308A5460308A546030868
:1000C000A5460308A5460308A5460308A546030858
:1000D000A5460308A5460308A5460308F302000841
:1000E00017030008A5460308A5460308A54603080C
:1000F000A5460308A5460308A5460308A546030828
:10010000A5460308A5460308A5460308A546030817
:10011000A5460308A5460308A5460308A546030807
:10012000A5460308A5460308A5460308A5460308F7
:10013000A5460308C5B70208A5460308A546030857
:10014000A5460308A5460308A5460308A5460308D7
:10015000A5460308A5460308A5460308FF020008B4
:10016000A5460308A5460308A5460308A5460308B7
:10017000A5460308A5460308A5460308000000009D
:10018000A5460308A5460308A5460308A546030897
:10019000A5460308A5460308A5460308A546030887
:0C01A000A5460308A5460308A546030871
:1001C000044B05481B1A062B02D9044B03B11847F0
:1001D000704700BFD7090020D409002000000000AC
:1001E00005490648091A891001EBD171491002D05E
:1001F000034B03B118477047D4090020D4090020ED
:100200000000000010B5064C237843B9FFF7D8FF73
:10021000044B13B10448AFF300800123237010BDD9
:10022000D409002000000000BC46030808B5084BB4
:100230001BB108490848AFF300800848036813B9A8
:10024000BDE80840CCE7064B002BF9D09847F7E70C
:1002500000000000D8090020BC460308D009002097
:1002600000000000134B002B08BF114B9D46A3F567
:10027000803A00218B460F461148124A121A2BF081
:10028000B1FC0D4B002B00D098470C4B002B00D03D
:1002900098470020002104000D000B482BF0AAFB1A
:1002A0002BF0DEFB2000290000F010F82BF0AEFB55
:1002B0000000080000000000000000000000000036
:1002C000D409002034F800202DBA020880B500AF10
:1002D00025F010FF00F0C8F901F0ACF801F026F9A4
:1002E00001F076FD02F098F805F07CFC002318463A
:1002F00080BD80B500AF00F031FC00BF80BD80B58F
:1003000000AF01F09FF900BF80BD80B500AF02F0E3
:100310003FF900BF80BD80B500AF02F065F900BFB6
:1003200080BD000080B483B000AF00237B6016E086
:100330000F4A7B68002142F823100E4A7B68002197
:1003400042F823100C4A7B680A2142F823100B4A1A
:100350007B68134401221A707B6801337B607B68E1
:10036000062BE5DD00BF0C37BD465DF8047B70470A
:10037000F0F60020C4F600208CF60020A8F600203D
:1003800090B583B000AF0346FB7125F04DFF0446E6
:10039000FB79184600F034F80346E21AFB790C4961
:1003A00051F823309A4207D9FB790A4A52F82320A0
:1003B0000132084941F82320FC7925F035FF024637
:1003C000054B43F8242000BF0C37BD4690BD00BF4D
:1003D0008CF60020F0F60020C4F6002080B483B034
:1003E00000AF0346FB71FB79044A52F823301846EC
:1003F0000C37BD465DF8047B704700BFF0F6002067
:1004000080B483B000AF0346FB71FB79044A52F815
:10041000233018460C37BD465DF8047B704700BF9B
:10042000C4F6002080B483B000AF0346FB71FB79B3
:10043000044A002142F8231000BF0C37BD465DF886
:10044000047B7047F0F6002080B483B000AF034611
:10045000FB71FB79044A002142F8231000BF0C37DE
:10046000BD465DF8047B7047C4F6002080B483B0BD
:1004700000AF03463960FB71FB793A68044941F8E3
:10048000232000BF0C37BD465DF8047B704700BFDA
:100490008CF60020F0B583B000AF00237B606C4A7F
:1004A0006B4B1B6B43F008031363694B1B6B03F02F
:1004B00008037B607B68674A664B5B6A23F0FF0337
:1004C00043F077035362634A624B1B6823F4702343
:1004D00043F4202313605F4A5E4B9B6893605D4A40
:1004E0005C4B5B6843F4407353605A4A594BDB687A
:1004F00023F4702343F41023D36000233B60544A59
:10050000534B1B6C43F480231364514B1B6C03F45B
:1005100080233B603B68504A4F4BDB6823F4005319
:10052000D3604D4A4C4BDB6823F48053D3604A4A76
:10053000494BDB6823F40043D360474A464BDB68F2
:1005400043F00C03D360444A434BDB6823F48063DD
:10055000D360414A404B1B6923F47C5313613E4EE8
:1005600024F01CFA024613469B0013449A001344DD
:100570003A4AA2FB03231B0D1C0124F00FFA02468A
:1005800013469B0013449A001344354AA2FB0323ED
:100590001D0B24F003FA024613469B0013449A00F5
:1005A00013442E4AA2FB03231B0D642202FB03F318
:1005B000EB1A1B0132332B4AA2FB03235B0903F026
:1005C000F0031C4424F0EAF9024613469B0013444E
:1005D0009A001344224AA2FB03231D0B24F0DEF9E8
:1005E000024613469B0013449A0013441B4AA2FB85
:1005F00003231B0D642202FB03F3EB1A1B013233AE
:10060000184AA2FB03235B0903F00F032344B360E2
:10061000114A114B5B6923F44A7323F002035361BF
:100620000D4A0D4BDB6843F02003D36000220A2102
:10063000272012F064F9272012F07DF9064A064BB4
:10064000DB6843F40053D36000BF0C37BD46F0BDF8
:1006500000380240000C02400048004073B2E745F9
:10066000B5814E1B1F85EB5180B582B002AF0023D0
:1006700001930423009300234FF4007203490448BC
:1006800004F0CEFD00BFBD4680BD00BFD8460308C4
:100690009506000880B5D8B000AFFFF7FBFEAB4B66
:1006A0001E229A60AA4B00221A60A94B00225A60AF
:1006B000A74B1E229A6004F0B5FA0246A54B1A60B9
:1006C00000221C210A2002F067FF0246A24B1A609A
:1006D000002210210A2002F05FFF02469F4B1A60A1
:1006E00000220C210A2002F057FF02469C4B1A60A0
:1006F0000023C7F85C310A23C7F840310123C7F84B
:100700003C310022D7F83C11D7F8400102F09CF8A8
:100710000246944B1A60944807F044F9934807F056
:1007200041F9934807F03EF9924807F03BF99248A7
:1007300007F038F9914807F035F9914807F032F998
:10074000904807F02FF9904807F02CF98F4807F0F0
:1007500029F98F4807F026F98E4807F023F900237E
:10076000C7F854310BE007F1CC02D7F854311344E9
:1007700000221A70D7F854310133C7F85431D7F832
:100780005431632BEFD90023C7F850310AE03A1DEA
:10079000D7F85031134400221A70D7F85031013382
:1007A000C7F85031D7F85031C72BF0D96D4B1868C6
:1007B00007F598711423042202F0D6FAC7F838011D
:1007C000D7F8303187F83731D7F83831002B00F0BF
:1007D000B68097F83731002B00F0B1806E4A97F859
:1007E0003731536000BF6C4B1B6803F04003002B94
:1007F000F9D097F837310D2B73D107F1CC02D7F828
:100800005C31134400221A700123C7F8583139E0D3
:10081000391D07F1CC03C822184607F005F9C7F8BF
:10082000580106F0A3FF0023C7F84C3112E05A49E3
:100830003A1DD7F84C3113441B784B6000BF564B20
:100840001B6803F04003002BF9D0D7F84C3101337B
:10085000C7F84C313B1D18462BF0D2FB0246D7F8A7
:100860004C319A42E3D84C4B0A225A6000BF4A4BA3
:100870001B6803F04003002BF9D006F0A5FF05200C
:1008800004F09AFED7F85831002BC1D10023C7F8E5
:1008900048310BE007F1CC02D7F84831134400226D
:1008A0001A70D7F848310133C7F84831D7F84831C2
:1008B000632BEFD90023C7F844310AE03A1DD7F87B
:1008C0004431134400221A70D7F844310133C7F879
:1008D0004431D7F84431C72BF0D90023C7F85C3135
:1008E0002DE097F837310D2B29D097F83731082BA9
:1008F00003D097F837317F2B10D1D7F85C31002B1C
:100900001DDDD7F85C31013BC7F85C3107F1CC0243
:10091000D7F85C31134400221A7010E0D7F85C312C
:10092000132B0CDC07F1CC02D7F85C31134497F899
:1009300037211A70D7F85C310133C7F85C3100F009
:100940002DF8142004F038FE30E700BFB0F6002088
:10095000E0F600203CF60020C0F6002088F60020DB
:1009600058F7002080F70020040000201400002029
:1009700024000020340000207C0000208C00002097
:100980009C000020AC000020BC000020440000209F
:1009900054000020640000200048004090B58BB057
:1009A00002AF674B18680123009300230022012146
:1009B00004F0FAF9F861FB6903F00103002B5DD044
:1009C000604B1B68002B59D0FB6903F00403002B1C
:1009D00054D15C4B1B6839460A22184603F061F972
:1009E0003B68184633F070F953A3D3E9002333F082
:1009F000FBFA03460C46184621464FF00002524BC4
:100A000033F0C8F903460C461846214633F072FC11
:100A10000346FB607B68184633F056F946A3D3E9DA
:100A2000002333F0E1FA03460C46184621464FF006
:100A30000002454B33F0AEF903460C4618462146FA
:100A400033F058FC03463B61404BDB68BB613F4BD6
:100A50009B687B613E4B1B68002B5AD03C4B1B684C
:100A60000121184603F0FAF90346012B51D1FB6826
:100A7000384A13603B69374A53604AE0FB6903F028
:100A80000103002B3ED02F4B1B68002B3AD02D4B7F
:100A90001B6839460A22184603F003F92B4B1B68E2
:100AA000FB602A4B5B683B61284BDB68BB617B6862
:100AB000184633F009F920A3D3E9002333F094FA60
:100AC00003460C46184621464FF000021E4B33F0F9
:100AD00061F903460C461846214633F00BFC0346E9
:100AE0007B611B4B1B68002B15D0194B1B68012128
:100AF000184603F0B3F90346012B0CD17B69154A64
:100B0000936008E0114B07F10C040FCB84E80F0051
:100B100002E000BF00E000BF0F4B1B68002B07D0B6
:100B20000D4B186807F10C0101230A2202F060FE48
:100B300000BF2437BD4690BD0000000000FEAF405E
:100B40003CF6002058F7002000006940B0F6002075
:100B500054F70020E0F6002088F6002080B582B02F
:100B600000AF00233B600A4B1B6803F02003002BFF
:100B70000AD0074B5B68DBB2FB71064B18683B463B
:100B8000F91D012202F045F800BF0837BD4680BDBF
:100B90000048004080F7002080B584B000AFF860C6
:100BA000B9607A6000F03AFC03461A460549F868D5
:100BB0002BF088F80346BB60002318461037BD466B
:100BC00080BD00BF7448030880B485B000AF786072
:100BD0000123FB600023BB6005E0FB681B01FB6099
:100BE000BB680133BB60BA687B689A42F5DBFB687F
:100BF00018461437BD465DF8047B704790B58BB03E
:100C000000AFF860B9607A6007F114031A46012159
:100C1000786806F099FFF86100237B62F8692BF091
:100C2000EFF90346BB61BB69013B3B6215E03B6AE0
:100C3000FA6913441B78303B1C46BA693B6AD31AE5
:100C4000013B1846FFF7C0FF034603FB04F37A6A33
:100C500013447B623B6A013B3B623B6A002BE6DA52
:100C6000034A7B6A1360002318462C37BD4690BDAB
:100C70005CF7002080B58CB000AFF860B9607A6096
:100C80000A4B1B68002B0CD020233B75084B1B68BC
:100C9000BB62064B186807F1140101230A2202F017
:100CA000A7FD002318463037BD4680BDC0F60020A2
:100CB0005CF70020B0B586B000AFF860B9607A602C
:100CC00007F110031A460121786806F03DFF7861AC
:100CD000154B1B68002B22D07B691B78302B06D16B
:100CE000114B1B680121184604F028F917E07B69B5
:100CF0001B78312B06D10C4B1B680121184604F0E0
:100D000076F90CE0FB68094A1D4614460FCC2860B2
:100D10006960AA60EB602068286123792B75002345
:100D200018461837BD46B0BD3CF600207C48030885
:100D300080B584B000AFF860B9607A60F86800F000
:100D400005F8002318461037BD4680BDF0B58BB0BE
:100D500004AF786005F070F80346FB60FA6813464C
:100D6000DB0013449B00184601F06AFC38613B69C4
:100D7000002B71D0FB6807F108021946386905F0AD
:100D80005DF90346FB607B68374A14469E4604F1D2
:100D9000200C754626460FCE28606960AA60EB607D
:100DA00010340EF1100E6445F3D17246234603CB86
:100DB0001060516078682BF023F902467B68134479
:100DC0007B6000237B6143E07A691346DB001344B8
:100DD0009B001A463B69134458687A691346DB0046
:100DE00013449B001A463B6913449C687A69134676
:100DF000DB0013449B001A463B6913441B7B1A46D5
:100E00001A4B9B5C1D467A691346DB0013449B001A
:100E10001A463B69134419697A691346DB00134487
:100E20009B001A463B6913441B8C02930191009569
:100E3000234602460E4978682AF044FF78682BF072
:100E4000DFF802467B6813447B607B6901337B617A
:100E5000FB687A699A42B7D3386901F07FFC00BF1A
:100E60001C37BD46F0BD00BF944803087400002045
:100E7000BC48030890B587B000AFF860B9607A60ED
:100E800007F110031A460121786806F05DFE7861CB
:100E9000174978692AF048FF0346002B02D101F078
:100EA000BBFA1FE0134978692AF03EFF0346002B86
:100EB00002D100F08DFF15E00F4978692AF034FF68
:100EC0000346002B02D100F031FB0BE0FB680B4A1C
:100ED0001C46134607CB20606160A2601A889B788D
:100EE000A281A373002318461C37BD4690BD00BFE6
:100EF000C4470308D8480308E0480308E848030843
:100F000090B589B000AFF860B9607A600023FB61EA
:100F100007F114031A460121786806F015FEB8613E
:100F20002449B8692AF000FF0346002B07D1224864
:100F300005F020F8F861F86904F0B0FA34E01F49D0
:100F4000B8692AF0F1FE0346002B07D11C4805F0D2
:100F500011F8F861F86904F0A1FA25E01949B869B7
:100F60002AF0E2FE0346002B07D1174805F002F8ED
:100F7000F861F86904F092FA16E0B86904F0FAFF33
:100F8000F861FB69002B0CD1FB68104A1C46134624
:100F900007CB20606160A2601A889B78A281A3734E
:100FA00002E0F86904F07AFA002318462437BD46B7
:100FB00090BD00BFC4470308F8480308D848030899
:100FC00004490308E04803080C490308E8480308FB
:100FD00080B487B000AF7860396000237B61002364
:100FE0003B610023FB737B681B782D2B15D10123FC
:100FF000FB733B6901333B610FE07A6913469B0049
:1010000013445B0019463B697A6813441B780B4410
:10101000303B7B613B6901333B613A693B689A42F3
:10102000EBDBFB7B002B02D07B695B427B617B6946
:1010300018461C37BD465DF8047B704780B58CB000
:1010400000AFF860B9607A60124B1B68002B1BD0B0
:1010500022233B750023BB610023FB6100233B621D
:101060000D4B1B68BB620D4B00221A600B4B00221C
:101070005A600A4B00229A60064B186807F1140167
:1010800001230A2202F0B4FB002318463037BD4684
:1010900080BD00BFC0F600205CF70020B0F6002045
:1010A000B0B594B000AFF860B9607A6007F11C0386
:1010B0001A460121786806F047FDB86407F1180365
:1010C0001A460221786806F03FFD78640023FB642D
:1010D00019E0FB6CBA6C13441B782C2B06D107F17A
:1010E0001002FB6C134400221A700FE0FB6CBA6C08
:1010F0001344197807F11002FB6C13440A461A7066
:10110000FB6C0133FB64FB6C042BE2DD07F1100385
:1011100018462AF075FF03461A4607F110031146D8
:101120001846FFF755FF3864BB691946786CFFF71E
:101130004FFFF8633B6CC82B0ADCFB6BC82B07DC4A
:101140003B6CB3F1FF3F03DBFB6BB3F1FF3F0FDA07
:10115000FB68244A1D4614460FCC28606960AA60CB
:10116000EB602388A2782B821346AB74002334E013
:101170001D4B1B68002B2FD03B6CB3F1FF3F0DD1F3
:10118000FB6BB3F1FF3F09D1184B1B687B62174B18
:101190005B68BB62154B9B68FB6206E03B6C7B6245
:1011A000FB6BBB62124B9B68FB62222387F82030EB
:1011B0007B6A0F4A1360BB6A0D4A5360FB6A0C4A94
:1011C00093600C4B1B687B63074B186807F1200189
:1011D00001230A2202F00CFB002318465037BD46BB
:1011E000B0BD00BF904A0308C0F60020E0F6002022
:1011F000B0F600205CF70020F0B58FB000AFF860CB
:10120000B9607A6007F130031A460121786806F068
:101210009BFC786322233B75274B1B68BB61264BE5
:101220005B68FB61254B1B68BB622549786B2AF024
:101230007BFD0346002B05D11E233B621E4B1E2265
:101240009A6027E01F49786B2AF06EFD0346002B59
:1012500005D163233B62184B63229A601AE0FB6856
:10126000194A14469E4604F1200C754626460FCEB8
:1012700028606960AA60EB6010340EF1100E6445BE
:10128000F3D17246234603CB106051601B88138153
:1012900000230CE00D4B1B68002B07D00B4B18688C
:1012A00007F1140101230A2202F0A2FA00231846D2
:1012B0003C37BD46F0BD00BFB0F600205CF7002013
:1012C000A44A0308AC4A0308B44A0308C0F6002045
:1012D000F0B58FB000AFF860B9607A6007F1300305
:1012E0001A460121786806F02FFC786324233B75A9
:1012F000214B1B68BB622149786B2AF015FD034620
:10130000002B03D1012387F82C3024E01C49786B93
:101310002AF00AFD0346002B03D1002387F82C3066
:1013200019E0FB68174A14469E4604F1200C7546E6
:1013300026460FCE28606960AA60EB6010340EF17B
:10134000100E6445F3D173462246118892781980B5
:101350009A7000230CE00C4B1B68002B07D00A4B43
:10136000186807F1140101230A2202F041FA002350
:1013700018463C37BD46F0BD5CF70020E04A030844
:10138000E44A0308E84A0308C0F60020B0B58EB06E
:1013900000AFF860B9607A6007F114031A460121C2
:1013A000786806F0D1FB7863184B1B68002B27D0B8
:1013B00023233B767B691946786BFFF709FE0346CA
:1013C000BB62BB6AB42B02DCBB6A002B0ADAFB6887
:1013D0000F4A1C4615460FCD20606160A260E36095
:1013E00000230EE0BB6A0B4AD3600B4B1B68FB6209
:1013F000064B186807F1180101230A2202F0F8F9D8
:10140000002318463837BD46B0BD00BFC0F60020E7
:101410000C4B0308B0F600205CF7002080B400AF4E
:10142000034B1B681846BD465DF8047B704700BF40
:101430000C10002080B582B002AF094B1B68002B56
:101440000AD1074B01930323009300234FF48072CA
:101450000449054803F0E4FE00BFBD4680BD00BF5F
:10146000081000201C4B03088914000880B500AF49
:10147000044B1B68184604F011F8024B00221A6056
:1014800000BF80BD0810002080B584B002AF29F0F5
:1014900095FF04202AF020F801202AF01DF80220F0
:1014A0002AF01AF804F0A6FC786004F0A3FC0246C7
:1014B0007B68D31AB3F57A7F0AD301202AF03AF871
:1014C00004F098FC7860174B1B680133154A1360D1
:1014D000154B1B68002B21D0134B18680123009378
:1014E00000230022012103F05FFC38603B6803F019
:1014F0000103002B03D0042029F0C0FF02E00420E8
:1015000029F0EAFF3B6803F00203002B03D002201E
:1015100029F0B4FF02E0022029F0DEFF032004F0EE
:101520004BF8C2E70C1000203CF6002080B582B0DA
:1015300002AF074B01930323009300234FF4807203
:101540000449054803F06CFE00BFBD4680BD00BFE6
:1015500010100020244B03087915000880B500AF57
:10156000044B1B68184603F099FF024B00221A60D7
:1015700000BF80BD1010002090B59BB004AF00F0FC
:101580007FF80A237B6501233B650022396D786D66
:1015900001F05AF90246274B1A60002387F84F30B2
:1015A000254B1B68002B28D0234B1B6807F1280113
:1015B0000A22184602F075FB0346002B1DD01F4A75
:1015C0001E4B5B6943F4004353613B1D03936C4620
:1015D00007F1380393E8070084E8070007F12803C0
:1015E0000FCB00F0BDFA3B1D184600F0E5FA134A98
:1015F000124B5B6923F4004353610E4B1868394664
:101600000023042201F0B0FBB864BB6C002B0CD0AB
:101610000B4B1B68002B05D0094B1B680221184699
:1016200003F0E5FC3B6887F84730322003F0C4FF45
:10163000B6E700BF84F70020C0F600200014024087
:101640003CF6002080B582B000AF00233B600A4B1F
:101650001B6803F02003002B0AD0074B5B68DBB24A
:10166000FB71064B18683B46F91D012201F0D1FAC7
:1016700000BF0837BD4680BD0014014084F700203C
:10168000F0B585B000AF0023FB609E4A9D4B1B6BFD
:1016900043F0400313639B4B1B6B03F04003FB6061
:1016A000FB68994A984B5B6A23F0706323F0F00360
:1016B00043F0006343F080035362934A924B1B68EC
:1016C00023F0405323F4402343F0005343F400231A
:1016D00013608D4A8C4B9B6893608B4A8A4B5B6886
:1016E00043F484435360884A874BDB6823F04053BC
:1016F00023F4402343F0805343F40023D3600023BA
:10170000BB60804A7F4B5B6C43F0200353647D4B8E
:101710005B6C03F02003BB60BB687C4A7B4BDB68DF
:1017200023F40053D360794A784BDB6823F4805369
:10173000D360764A754BDB6823F40043D360734A69
:10174000724BDB6843F00C03D360704A6F4BDB686D
:1017500023F48063D3606D4A6C4B1B6923F47C5384
:1017600013616A4E23F02EF9024613469B00134480
:101770009A001344664AA2FB03231B0D1C0123F0AD
:1017800021F9024613469B0013449A001344614A10
:10179000A2FB03231D0B23F015F9024613469B0001
:1017A00013449A0013445A4AA2FB03231B0D6422DC
:1017B00002FB03F3EB1A1B013233574AA2FB03234C
:1017C0005B0903F0F0031C4423F0FCF802461346C7
:1017D0009B0013449A0013444E4AA2FB03231D0BA3
:1017E00023F0F0F8024613469B0013449A0013447A
:1017F000474AA2FB03231B0D642202FB03F3EB1AEF
:101800001B013233444AA2FB03235B0903F00F039D
:101810002344B3603D4A3D4B5B6923F44A7323F094
:1018200002035361394A394BDB6843F02003D3602C
:1018300000220A21472011F062F8472011F07BF8BE
:10184000324A324BDB6843F40053D36000237B60A1
:101850002C4A2C4B1B6B43F010031363294B1B6B5F
:1018600003F010037B607B6800233B60254A254B17
:101870001B6B43F020031363224B1B6B03F020030D
:101880003B603B68254A254B1B6823F0704343F0BF
:1018900080431360224A224B1B6823F04C6343F4BD
:1018A000800313601D4A1D4B5B6823F400435360A3
:1018B0001B4A1B4B5B6823F400635360174A174BAA
:1018C0009B6823F0404343F000439360144A144B59
:1018D0009B6823F0486343F4000393600F4A0F4B67
:1018E000DB6823F0704343F02043D3600C4A0C4B79
:1018F000DB6823F04C6343F00463D36000BF14370C
:10190000BD46F0BD003802400018024000140140FE
:1019100073B2E745B5814E1B1F85EB5100140240A1
:101920000010024080B483B000AF0346FB71084A48
:10193000FB79536000BF064B1B6803F04003002B8C
:10194000F9D000BF0C37BD465DF8047B704700BF7F
:101950000014014080B48FB000AF7860396000237C
:1019600087F8373000233B637B68002B06D13B6848
:1019700030221A703B68013300221A707B68002BFA
:1019800026DA7B685B427B60012387F837301FE0F3
:101990007A68314B83FB02139910D317C91A0B468F
:1019A0009B000B445B00D31A7B623B6B5A1C3A636F
:1019B0001A463B6813447A6AD2B23032D2B21A70F5
:1019C0007B68254A82FB03129210DB17D31A7B60D7
:1019D0007B68002BDCDC97F83730002B07D03B6BA3
:1019E0005A1C3A631A463B6813442D221A7000238E
:1019F000FB620FE03A6BFB6AD31A013B3A6813446F
:101A0000197807F10C02FB6A13440A461A70FB6A44
:101A10000133FB62FA6A3B6B9A42EBDB0023BB6249
:101A20000BE0BB6A3A68134407F10C01BA6A0A4436
:101A300012781A70BB6A0133BB62BA6A3B6B9A4276
:101A4000EFDB3B6B3A68134400221A7000BF3C374F
:101A5000BD465DF8047B70476766666684B080B5F6
:101A60008AB002AF07F1280E8EE80F0097F82830F1
:101A7000FB760023FB6108E07A6CFB6913440C33AE
:101A800000221A70FB690133FB61FB69162BF3DD41
:101A9000FB7E203B042B51D801A252F823F000BF5B
:101AA000B51A00083D1B0008C51A0008091B0008EC
:101AB000191B00087B6C0C33244A106818601279DB
:101AC0001A713BE0FB6A07F1140211461846FFF752
:101AD00041FF3B6B07F10C0211461846FFF73AFF36
:101AE0007B6B3A1D11461846FFF734FF7B6C03F100
:101AF0000C0007F10C0107F114023B1D00930B468B
:101B000013492AF0DFF819E07B6C0C33BA6B1149EA
:101B100018462AF0D7F811E097F84030002B05D08E
:101B20007B6C0C330C4A1068186007E07B6C0C333C
:101B30000A4A1068186012791A7100BF00BF203776
:101B4000BD46BDE8804004B0704700BF2C4B030881
:101B5000344B0308444B03084C4B0308504B030819
:101B600084B090B585B004AF07F1100484E80F008D
:101B7000FB6AAA221A703A7CFB6A5A70FB6A0D4A09
:101B80005A607A6AFB6A9A60FB6A03936C4607F1B3
:101B9000200393E8070084E8070007F110030FCB48
:101BA000FFF75CFF00BF0437BD46BDE8904004B0BE
:101BB000704700BF3942874580B584B000AF786078
:101BC0007B681B781846FFF7ADFE7B685B7818468C
:101BD000FFF7A8FE7B685B681B0EDBB21846FFF7B9
:101BE000A1FE7B685B681B0CDBB21846FFF79AFE10
:101BF0007B685B681B0ADBB21846FFF793FE7B68C5
:101C00005B68DBB21846FFF78DFE7B689B681B0E96
:101C1000DBB21846FFF786FE7B689B681B0CDBB2C5
:101C20001846FFF77FFE7B689B681B0ADBB21846ED
:101C3000FFF778FE7B689B68DBB21846FFF772FE01
:101C40000023FB600AE07A68FB6813440C331B78BE
:101C50001846FFF767FEFB680133FB60FB68162B35
:101C6000F1DD00BF1037BD4680BD00BF80B584B038
:101C700000AF00237B60514A504B1B6B43F00203C3
:101C800013634E4B1B6B03F002037B607B684C4A73
:101C90004B4B5B6A23F0FF035362494A484B5B6A34
:101CA00043F044035362464A454B1B6823F47023B8
:101CB0001360434A424B1B6843F4B4031360404A29
:101CC0003F4B9B6823F4702393603D4A3C4B5B6819
:101CD00043F4407353603A4A394BDB6823F4702372
:101CE000D360374A364BDB6843F4A023D36000232C
:101CF0003B60324A314B1B6C43F4001313642F4B8F
:101D00001B6C03F400133B603B682E4A2D4B1B6891
:101D100023F00103136022F041FEF860FB682A4AB9
:101D2000A2FB03239B0CBB602649264B5B6823F078
:101D30003F02BB6813434B602249224B1B6A23F0CE
:101D40003F02BB68013313430B621E491D4BDB6925
:101D500023F44F4323F0FF03FA68013A92091B482A
:101D6000A0FB020292090132C2F30B02042A38BF1F
:101D700004221343CB61134A124B1B6823F0C003A8
:101D80001360104A0F4B9B6823F4434323F0FF0377
:101D900043F4804393600B4A0A4BDB6823F0FF0354
:101DA000D360084A074B1B6843F00103136006F039
:101DB000C5F900BF1037BD4680BD00BF00380240E6
:101DC000000402400054004083DE1B43632D3E05A7
:101DD00080B582B002AF074B019303230093002329
:101DE0004FF480720449054803F01AFA00BFBD465B
:101DF00080BD00BF24140020584B03081D1E00089E
:101E000080B500AF044B1B68184603F047FB024B3C
:101E100000221A6000BF80BD2414002080B58CB061
:101E200000AFFFF723FF3B1D184600F01BF803F03F
:101E300037FF002006F060F803F040FF00F0CEF816
:101E40003B1D0FCB00F05AF83B1D0FCB00F020F8E4
:101E500003F026FF06F072F803F030FF142003F0C1
:101E6000ABFBE0E780B582B000AF7860074B1B6842
:101E7000002B06D0054B1B680A227968184601F032
:101E800010FF00BF0837BD4680BD00BF88F60020A8
:101E900090B587B000AF3C4684E80F00BA6807F100
:101EA00014031449184629F00DFFFA6807F11003CE
:101EB0001049184629F006FF03F0F2FE08216420BD
:101EC00006F0C2F80C4A07F11400012306CA05F017
:101ED0000CFF1421642006F0B7F8074A07F1100040
:101EE000012306CA05F001FF03F0E8FE00BF1C371E
:101EF000BD4690BD604B0308E000002090B589B05E
:101F000000AF3C4684E80F003B68184631F0DCFE29
:101F10004FF000022F4B32F067F803460C4618468C
:101F200021464FF000022C4B31F034FF03460C46A3
:101F30001846214632F0DEF90346BB617B6818463D
:101F400031F0C2FE4FF00002224B32F04DF8034652
:101F50000C46184621464FF000021F4B31F01AFF85
:101F600003460C461846214632F0C4F903467B610D
:101F70006FF00103FB6126E003F092FEBB69DAB269
:101F8000FB69DBB21344DBB20233D8B27B69DBB24C
:101F90000233DBB20122194605F0F6FFBB69DBB262
:101FA0000233D8B27B69DAB2FB69DBB21344DBB22D
:101FB0000233DBB20122194605F0E6FF03F07EFE94
:101FC000FB690133FB61FB69022BD5DD00BF2437C0
:101FD000BD4690BD0000694000003C4080B582B025
:101FE00000AF00237B602AE003F05AFE7B68DBB27F
:101FF0000133DBB201220121184605F0C5FF7B68E1
:10200000DBB20133DBB201221F21184605F0BCFF11
:102010007B68DBB20133DBB201221946012005F0F7
:10202000B3FF7B68DBB20133DBB2012219461E200D
:1020300005F0AAFF03F042FE7B6801337B607B68FA
:102040001D2BD1DD00BF0837BD4680BD80B483B0F5
:1020500000AF0346FB7197F90730002B0BDB0949F2
:1020600097F907305B09FA7902F01F02012000FAA4
:1020700002F241F8232000BF0C37BD465DF8047B17
:10208000704700BF00E100E080B483B000AF0346BA
:102090003960FB7197F90730002B0ADB0D4997F97E
:1020A00007303A68D2B21201D2B20B4483F800234F
:1020B0000AE00949FB7903F00F03043B3A68D2B206
:1020C0001201D2B20B441A7600BF0C37BD465DF840
:1020D000047B704700E100E000ED00E080B584B0D3
:1020E00000AF9C4A9B4B9B6823F040639360994AE6
:1020F000984B9B6843F000639360964A954BDB686E
:1021000023F04063D360934A924B1B6823F04063F3
:102110001360914A904B5B6C43F4804353648F4A45
:102120008E4B5B6923F0F00353618C4A8B4B5B69E8
:1021300043F020035361894A884B5B6923F00F0306
:102140005361874A864B9B6843F400539360844AEB
:10215000834B1B6843F4005313600A212820FFF7C8
:1021600093FF2820FFF772FF0023FB607A4A7A4B27
:102170001B6B43F004031363774B1B6B03F00403E7
:10218000FB60FB68734A734B1B6823F0C00313604A
:10219000704A704B9B6823F0C00393606D4A6D4B8F
:1021A0009B6843F0800393606A4A6A4BDB6823F0C4
:1021B000C003D360674A674BDB6843F04003D360DA
:1021C000654A654B5B6C43F480435364634A634BDD
:1021D0009B6823F470439360604A604B9B6843F4B0
:1021E000005393605E4A5E4BDB6843F00803D360A4
:1021F0005B4A5B4B1B6843F00803136000220A2113
:10220000092010F07CFB092010F095FB0023BB6037
:10221000514A514B1B6B43F0010313634E4B1B6B35
:1022200003F00103BB60BB684E4A4E4B1B6843F092
:10223000C00313604B4A4B4B9B6823F0C003936071
:10224000484A484B9B6843F080039360454A454B9E
:10225000DB6823F00603D3603E4A3E4B1B6843F025
:10226000030313603B4A3B4B9B6823F003039360DB
:10227000384A384B9B6843F002039360354A354B2C
:10228000DB68D36000237B60334A334B5B6C43F4E1
:1022900080735364304B5B6C03F480737B607B68AA
:1022A000314B324A1A60304B00225A602E4B0022CA
:1022B0009A602D4B00221A612B4B00221A762A4B72
:1022C000002283F82020284B00225A62264B00224D
:1022D000DA62254B00229A62234B0022DA60224BFD
:1022E0000122DA61204B002283F830201E4B0022AD
:1022F0005A611D4824F0F6F81D4B03221A601C4B4E
:1023000001225A601A4B00229A60194B0022DA60AF
:102310001749154824F0FFFE00233B600E4A0E4B80
:102320005B6C43F4007353640B4B5B6C03F40073FE
:102330003B603B680F4B104A1A600E4B00225A60FC
:102340000C4B00229A600B4B00221A61094B0022B1
:102350001A7613E0000802400038024000380140BD
:10236000003C01400000024040F6002000200140F7
:1023700060F700200CF7002000210140184B0022DC
:1023800083F82020164B00225A62154B0022DA6295
:10239000134B00229A62124B0022DA60104B01228A
:1023A000DA610F4B002283F830200D4B00225A6176
:1023B0000B4824F097F80B4B0A221A60094B0122B4
:1023C0005A60084B00229A60064B0022DA600549E9
:1023D000034824F0A0FE00BF1037BD4680BD00BFFB
:1023E0000CF7002070F7002080B584B000AF786053
:1023F000786824F000F900BF0A21786824F0F3F926
:102400000346002BF8D17B681B68DB6CFB60FB6824
:1024100018461037BD4680BD80B582B002AF074B6D
:1024200001930323009300234FF48072044905486D
:1024300002F0F6FE00BFBD4680BD00BF281400209C
:10244000644B03086524000880B500AF044B1B688B
:10245000184603F023F8024B00221A6000BF80BD2B
:102460002814002080B58AB002AF03220021012089
:1024700001F092F80246404B1A600322002101202D
:1024800001F08AF802463D4B1A604FF0500383F387
:102490001188BFF36F8FBFF34F8F3B61FFF71EFEB5
:1024A00000237B617B6983F31188FDF73BFF3221B9
:1024B0000220FDF7DBFFFDF735FF0023FB612E4B0C
:1024C0001B68002B2BD02C4B1B680121184601F0F8
:1024D000C5FC0346012B22D10220FDF751FF02204B
:1024E000FDF77CFF0246FB699A4218D0244B1B681B
:1024F000002B14D0FB690133FB61FB6903F001037E
:10250000002B06D01E4B1B680421184602F06FFDFD
:1025100005E01B4B1B680421184602F00FFD184B09
:102520001B68002B23D0174B1B68002B1FD0144BAC
:1025300018680123009300230022012102F034FCDB
:10254000B861BB6903F00103002B10D00E48FFF700
:102550004BFF03467B600D48FFF746FF0346BB6019
:10256000084B1868391D01230A2201F041F9322075
:1025700003F022F8A3E700BF88F7002054F70020FB
:102580003CF6002058F7002040F600200CF7002011
:1025900080B582B000AF114A104B5B6943F008036D
:1025A000536100237B600E4B1B68002B06D00C4B45
:1025B0001B683A1D1146184601F0D8FA7B68002BBB
:1025C00007D0084B4FF080521A60BFF34F8FBFF314
:1025D0006F8F00BF0837BD4680BD00BF003C014083
:1025E00088F7002004ED00E080B582B000AF114A0A
:1025F000104B5B6943F40053536100237B600E4B27
:102600001B68002B06D00C4B1B683A1D1146184660
:1026100001F0ACFA7B68002B07D0084B4FF08052DA
:102620001A60BFF34F8FBFF36F8F00BF0837BD46EF
:1026300080BD00BF003C014054F7002004ED00E0E5
:1026400080B588B000AF786000237B6103F028FB81
:102650003E4B1B68002B04D100F0CDF83B4B012210
:102660001A607B68002B0ED008231A467B6813443F
:102670007B607B6803F00703002B04D07B6823F0AA
:10268000070308337B607B68002B57D07B684DF6CF
:10269000F732934252D82E4BBB612D4B1B68FB6126
:1026A00004E0FB69BB61FB691B68FB61FB695A685D
:1026B0007B689A4203D2FB691B68002BF1D1FB694E
:1026C000244A93423AD0BB691B68082213447B61B9
:1026D000FB691A68BB691A60FB695A687B68D31A80
:1026E00008225200934222D9FA697B681344FB60A6
:1026F000FB695A687B68D21AFB685A60FB697A6882
:102700005A60FB685B68BB60114B3B6102E03B6950
:102710001B683B613B691B685A68BB689A42F6D3E9
:102720003B691A68FB681A603B69FA681A600A4BD1
:102730001A68FB695B68D31A074A136003F0BEFA94
:102740007B6918462037BD4680BD00BF3CF00020A5
:102750002CF0002034F00020CC00002080B586B0A2
:1027600000AF78607B683B617B68002B27D0082333
:102770005B423A6913443B613B69FB6003F090FAAA
:10278000FB685B68BB60104B7B6102E07B691B6888
:102790007B617B691B685A68BB689A42F6D37B6988
:1027A0001A68FB681A607B69FA681A60FB685A68E5
:1027B000064B1B681344054A136003F07FFA00BF01
:1027C0001837BD4680BD00BF2CF00020CC00002093
:1027D00080B400AF034B1B681846BD465DF8047B10
:1027E000704700BFCC00002080B400AF00BFBD46E2
:1027F0005DF8047B704780B483B000AF0F4B23F0CB
:1028000007037B600E4A7B6813600D4B00225A6001
:102810000C4B4DF6F8325A600A4B00221A607B6866
:102820003B603B684DF6F8325A603B68054A1A60D7
:1028300000BF0C37BD465DF8047B704734140020A0
:102840002CF0002034F0002080B58CB002AFF8608E
:10285000B9607A607B68012B0FD1012387F827309C
:10286000FB68042B19D84FF0500383F31188BFF392
:102870006F8FBFF34F8FFB61FEE7002387F8273090
:10288000FB68002B09D14FF0500383F31188BFF38D
:102890006F8FBFF34F8FBB61FEE7BA68FB689A4248
:1028A00009D94FF0500383F31188BFF36F8FBFF343
:1028B0004F8F7B61FEE7BB68002B01D10123BB601A
:1028C000FB680133FB60FB6824331846FFF7B8FE52
:1028D00038623B6A002B0AD03B6A03F1240197F867
:1028E00027300093BB68FA68386A00F092FD3B6AB3
:1028F00018462837BD4680BD80B584B000AF7860EB
:102900007B68FB60FB68002B09D14FF0500383F319
:102910001188BFF36F8FBFF34F8FBB60FEE7FB687B
:102920001B7F03F00203002B03D1F868FFF716FFAB
:1029300004E024220021F86829F054F900BF103780
:10294000BD4680BD80B588B002AF78607B683B61D2
:1029500000237B613B69002B09D14FF0500383F3C7
:102960001188BFF36F8FBFF34F8FBB60FEE73B69EA
:102970001B6AFB6004F0FAFE3B691B69002B15D152
:102980003B695B69002B11D13B6999693B699A6886
:102990003B69D8683B691B7F00930346386900F0A8
:1029A00038FD01237B613B69FA681A6204F00CFF71
:1029B0007B6918461837BD4680BD80B487B000AF2C
:1029C000786039607B683B613B69002B09D14FF02F
:1029D000500383F31188BFF36F8FBFF34F8FFB60FA
:1029E000FEE73B68002B01D101233B603B699A68FD
:1029F0003B689A4205D33B693A68DA6001237B6100
:102A000001E000237B617B6918461C37BD465DF8F9
:102A1000047B704780B487B000AF78607B683B610F
:102A20003B69002B09D14FF0500383F31188BFF3AA
:102A30006F8FBFF34F8FFB60FEE73B699A683B697E
:102A40001B6813447B613B695B687A69D31A7B61BD
:102A50007B69013B7B613B699A687B699A4204D838
:102A60003B699B687A69D31A7B617B6918461C377E
:102A7000BD465DF8047B704780B586B000AF7860D6
:102A80007B687B617B69002B09D14FF0500383F396
:102A90001188BFF36F8FBFF34F8FFB60FEE778693C
:102AA00000F097FC38613B6918461837BD4680BD79
:102AB00080B590B002AFF860B9607A603B60FB68A7
:102AC000FB6200237B637B683B63BB68002B09D1FF
:102AD0004FF0500383F31188BFF36F8FBFF34F8F15
:102AE0007B62FEE7FB6A002B09D14FF0500383F3B2
:102AF0001188BFF36F8FBFF34F8F3B62FEE7FB6A16
:102B00001B7F03F00103002B10D03B6B04333B63AE
:102B10003A6B7B689A4209D84FF0500383F31188CF
:102B2000BFF36F8FBFF34F8FFB61FEE73B68002B56
:102B30003DD007F11003184603F040FD04F016FEE7
:102B4000F86AFFF767FF78637A6B3B6B9A4216D29D
:102B5000002004F03BFCFB6A5B69002B09D04FF0BE
:102B6000500383F31188BFF36F8FBFF34F8FBB61A7
:102B7000FEE703F07BFF0246FB6A5A6102E004F0C5
:102B800023FE14E004F020FE3B6800220021002018
:102B900004F0AAF9FB6A00225A613A4607F11003D1
:102BA0001146184603F046FD0346002BC6D07B6B4A
:102BB000002B03D1F86AFFF72DFF78633B6B00937E
:102BC0007B6B7A68B968F86A00F091F8B862BB6A02
:102BD000002B19D0F86A00F0FCFB0246FB6ADB68A8
:102BE0009A4211D303F05CF8FB6A1B69002B09D0F1
:102BF000FB6A186900230022002104F0CFF9FB6A68
:102C000000221A6103F05AF8BB6A18463837BD46ED
:102C100080BD80B590B002AFF860B9607A603B606B
:102C2000FB683B637B687B63BB68002B09D14FF07B
:102C3000500383F31188BFF36F8FBFF34F8F3B6255
:102C4000FEE73B6B002B09D14FF0500383F3118853
:102C5000BFF36F8FBFF34F8FFB61FEE73B6B1B7FB3
:102C600003F00103002B02D07B6B04337B63386BD2
:102C7000FFF7D0FEF8627B6B0093FB6A7A68B96855
:102C8000386B00F034F8B862BB6A002B2AD0386B7E
:102C900000F09FFB02463B6BDB689A4222D3EFF3C6
:102CA00011824FF0500383F31188BFF36F8FBFF38E
:102CB0004F8FBA617B61BB697B623B6B1B69002BE9
:102CC0000BD03B6B18693B68009300230022002166
:102CD00004F016FA3B6B00221A617B6A3B613B6988
:102CE00083F31188BB6A18463837BD4680BD80B56E
:102CF00086B000AFF860B9607A603B603B68002B3B
:102D000002D100237B611DE0FB681B7F03F0010300
:102D1000002B08D101237B617A683B68934228BF6E
:102D200013467B600EE03A683B6A9A4208D301235F
:102D30007B613B1D04221946F86800F064FA01E04B
:102D400000237B617B69002B07D07B681A46B9683A
:102D5000F86800F058FA386101E000233B613B69F4
:102D600018461837BD4680BD80B58EB002AFF860FA
:102D7000B9607A603B60FB683B620023FB62BB6822
:102D8000002B09D14FF0500383F31188BFF36F8FED
:102D9000BFF34F8FFB61FEE73B6A002B09D14FF079
:102DA000500383F31188BFF36F8FBFF34F8FBB6165
:102DB000FEE73B6A1B7F03F00103002B02D00423D4
:102DC0007B6201E000237B623B68002B33D004F080
:102DD000CDFC386A00F0FDFAB862BA6A7B6A9A42A2
:102DE00015D8002004F0F2FA3B6A1B69002B09D0C9
:102DF0004FF0500383F31188BFF36F8FBFF34F8FF2
:102E00007B61FEE703F032FE02463B6A1A6104F082
:102E1000DBFCBA6A7B6A9A4211D83B680022002127
:102E2000002004F061F83B6A00221A61386A00F061
:102E3000D0FAB86203E0386A00F0CBFAB862BA6A36
:102E40007B6A9A421DD97B6A0093BB6A7A68B9682B
:102E5000386A00F0CEF8F862FB6A002B11D002F05D
:102E60001FFF3B6A5B69002B09D03B6A586900234E
:102E70000022002104F092F83B6A00225A6102F01D
:102E80001DFFFB6A18463037BD4680BD80B58AB04D
:102E900000AF78607B683B623B6A002B09D14FF042
:102EA000500383F31188BFF36F8FBFF34F8F7B61A4
:102EB000FEE73B6A1B7F03F00103002B26D0386A34
:102EC00000F087FAF861FB69042B0FD93B6A1B6895
:102ED000BB6107F10C01FB690422386A00F002FAB9
:102EE000FB687B623B6ABA691A6011E0FB69002BE0
:102EF00009D04FF0500383F31188BFF36F8FBFF3F6
:102F00004F8F3B61FEE700237B6201E000237B6281
:102F10007B6A18462837BD4680BD80B590B002AFA9
:102F2000F860B9607A603B60FB68FB6200237B63FA
:102F3000BB68002B09D14FF0500383F31188BFF316
:102F40006F8FBFF34F8F3B62FEE7FB6A002B09D107
:102F50004FF0500383F31188BFF36F8FBFF34F8F90
:102F6000FB61FEE7FB6A1B7F03F00103002B02D02D
:102F700004233B6301E000233B63F86A00F029FA75
:102F8000B862BA6A3B6B9A422ED93B6B0093BB6A1C
:102F90007A68B968F86A00F02CF878637B6B002BCC
:102FA00022D0EFF311824FF0500383F31188BFF367
:102FB0006F8FBFF34F8FBA617B61BB697B62FB6A26
:102FC0005B69002B0BD0FB6A58693B6800930023B8
:102FD0000022002104F094F8FB6A00225A617B6A07
:102FE0003B613B6983F311887B6B18463837BD46DC
:102FF00080BD80B588B000AFF860B9607A603B6092
:10300000BB6A002B19D0FB681B68BB6107F110017C
:103010003B68BA6AF86800F065F93B69FB613A6899
:10302000BB6AD31A3B60FA697B689A4207D9FB688E
:10303000BA691A600023FB6101E07B68FB613B68B1
:10304000FA69B968F86800F04DF978617B6918464B
:103050002037BD4680BD80B487B000AF78607B6804
:103060003B613B69002B09D14FF0500383F311887A
:10307000BFF36F8FBFF34F8FBB60FEE73B691B68E9
:10308000FB603B695A68FB689A4202D101237B616D
:1030900001E000237B617B6918461C37BD465DF863
:1030A000047B704780B586B000AF78607B68FB60BA
:1030B000FB68002B09D14FF0500383F31188BFF355
:1030C0006F8FBFF34F8FBB60FEE7FB681B7F03F082
:1030D0000103002B02D004233B6101E000233B618C
:1030E0007868FFF797FC02463B699A4202D80123B1
:1030F0007B6101E000237B617B6918461837BD4680
:1031000080BD80B58CB002AF786039607B683B626F
:103110003B6A002B09D14FF0500383F31188BFF3B2
:103120006F8FBFF34F8FBB61FEE7EFF311824FF05C
:10313000500383F31188BFF36F8FBFF34F8F7A6112
:103140003B617B69FB613B6A1B69002B0ED03B6ACC
:1031500018693B68009300230022002103F0D0FF90
:103160003B6A00221A6101237B6201E000237B623B
:10317000FB69FB60FB6883F311887B6A184628377C
:10318000BD4680BD80B58CB002AF786039607B6889
:103190003B623B6A002B09D14FF0500383F3118847
:1031A000BFF36F8FBFF34F8FBB61FEE7EFF3118269
:1031B0004FF0500383F31188BFF36F8FBFF34F8F2E
:1031C0007A613B617B69FB613B6A5B69002B0ED0D6
:1031D0003B6A58693B68009300230022002103F0FA
:1031E0008FFF3B6A00225A6101237B6201E00023CA
:1031F0007B62FB69FB60FB6883F311887B6A18467E
:103200002837BD4680BD80B58AB000AFF860B96090
:103210007A607B68002B09D14FF0500383F311884B
:10322000BFF36F8FBFF34F8FFB61FEE7FB685B68F7
:103230007B62FB689A687B6AD21A7B68934228BFDC
:1032400013463B627A6A3B6A1A44FB689B689A425F
:1032500009D94FF0500383F31188BFF36F8FBFF389
:103260004F8FBB61FEE7FB689A697B6A13443A6A39
:10327000B968184628F01CFC7A683B6A9A421BD948
:103280007A683B6AD21AFB689B689A4209D94FF068
:10329000500383F31188BFF36F8FBFF34F8F7B61B0
:1032A000FEE7FB689869BA683B6AD1187A683B6A9E
:1032B000D31A1A4628F0FCFB7A6A7B6813447B62B7
:1032C000FB689A687B6A9A4204D8FB689B687A6AB2
:1032D000D31A7B62FB687A6A5A607B681846283783
:1032E000BD4680BD80B58AB000AFF860B9607A6035
:1032F0003B607A683B68934228BF13463B623B6A57
:10330000002B61D0FB681B687B62FB689A687B6A54
:10331000D21A3B6A934228BF1346FB61FA697B6865
:103320009A4209D94FF0500383F31188BFF36F8F8E
:10333000BFF34F8FBB61FEE77A6AFB691A44FB68F3
:103340009B689A4209D94FF0500383F31188BFF369
:103350006F8FBFF34F8F7B61FEE7FB689A697B6AD3
:103360001344FA691946B86828F0A2FB3A6AFB6967
:103370009A4218D93A6A7B689A4209D94FF05003A9
:1033800083F31188BFF36F8FBFF34F8F3B61FEE76D
:10339000BA68FB69D018FB6899693A6AFB69D31A65
:1033A0001A4628F085FB7A6A3B6A13447B62FB6805
:1033B0009A687B6A9A4204D8FB689B687A6AD31A37
:1033C0007B62FB687A6A1A603B6A18462837BD46FA
:1033D00080BD80B485B000AF78607B689A687B68F8
:1033E0005B681344FB607B681B68FA68D31AFB6058
:1033F0007B689A68FB689A4204D87B689B68FA6885
:10340000D31AFB60FB6818461437BD465DF8047B91
:10341000704780B586B000AFF860B9607A603B60F5
:1034200055237B617A687969B86828F0DBFB02462E
:10343000BB689A4209D04FF0500383F31188BFF361
:103440006F8FBFF34F8F3B61FEE724220021F868A6
:1034500028F0C8FBFB68BA689A61FB687A689A60D2
:10346000FB683A68DA60FB6897F820201A7700BF9B
:103470001837BD4680BD80B483B000AF78607B68EC
:103480001B6A18460C37BD465DF8047B704780B454
:1034900083B000AF786039607B683A681A6200BF19
:1034A0000C37BD465DF8047B704780B483B000AF35
:1034B00078607B681B7F03F00103DBB218460C3792
:1034C000BD465DF8047B704780B584B000AF78607E
:1034D00039607B68FB60FB68002B09D14FF050031B
:1034E00083F31188BFF36F8FBFF34F8FBB60FEE78D
:1034F00004F03CF9FB681A68FB68DB6BF968096C3F
:1035000001FB03F31A44FB689A60FB6800229A638C
:10351000FB681A68FB685A60FB681A68FB68DB6B1B
:10352000013BF968096C01FB03F31A44FB68DA609C
:10353000FB68FF2283F84420FB68FF2283F84520C4
:103540003B68002B14D1FB681B69002B1AD0FB6869
:103550001033184602F070FF0346002B12D00D4BBB
:103560004FF080521A60BFF34F8FBFF36F8F09E0A7
:10357000FB681033184601F0A1FAFB6824331846A3
:1035800001F09CFA04F020F9012318461037BD46DB
:1035900080BD00BF04ED00E080B58AB002AFF860E6
:1035A000B9601346FB71FB68002B09D14FF0500343
:1035B00083F31188BFF36F8FBFF34F8F3B61FEE73B
:1035C000BB68002B02D10023FB6104E0FB68BA68F2
:1035D00002FB03F3FB61FB6954331846FFF730F835
:1035E000B861BB69002B0DD0BB697B617B6954332B
:1035F0007B61FA79BB69009313467A69B968F86808
:1036000000F005F8BB6918462037BD4680BD80B57F
:1036100084B000AFF860B9607A60FB70BB68002BC3
:1036200003D1BB69BA691A6002E0BB697A681A60A3
:10363000BB69FA68DA63BB69BA681A640121B869C0
:10364000FFF742FFBB69FA7883F85020BB6900227C
:103650009A6400BF1037BD4680BD80B582B000AF10
:1036600078607B68002B0ED07B6800229A607B68B4
:1036700000221A607B680022DA6000230022002109
:10368000786800F0B5F800BF0837BD4680BD80B54A
:1036900086B000AF0346FB7101237B6100233B61D1
:1036A000FB791A4639697869FFF776FFF860F868A0
:1036B000FFF7D3FFFB6818461837BD4680BD90B5AD
:1036C00087B000AF78607B683B613B69002B09D114
:1036D0004FF0500383F31188BFF36F8FBFF34F8F09
:1036E000FB60FEE73B699C6803F0C0F903469C421F
:1036F00011D13B69DB685A1E3B69DA603B69DB68C4
:10370000002B05D1002300220021386900F070F859
:1037100001237B6101E000237B617B6918461C3734
:10372000BD4690BD90B587B000AF786039607B68CA
:103730003B613B69002B09D14FF0500383F31188A3
:10374000BFF36F8FBFF34F8FFB60FEE73B699C6851
:1037500003F08CF903469C4207D13B69DB685A1C95
:103760003B69DA6001237B610CE03968386900F05D
:1037700075FB78617B69002B04D03B69DB685A1CC0
:103780003B69DA607B6918461C37BD4690BD80B541
:1037900086B000AF786039607B68002B09D14FF0AC
:1037A000500383F31188BFF36F8FBFF34F8F3B61DB
:1037B000FEE73A687B689A4209D94FF0500383F3D9
:1037C0001188BFF36F8FBFF34F8FFB60FEE70222BC
:1037D00000217868FFF7E0FE78617B69002B02D05A
:1037E0007B693A689A637B6918461837BD4680BD85
:1037F00080B58EB000AFF860B9607A603B6000239E
:103800007B63FB683B633B6B002B09D14FF050039C
:1038100083F31188BFF36F8FBFF34F8F7B62FEE797
:10382000BB68002B03D13B6B1B6C002B01D1012328
:1038300000E00023002B09D14FF0500383F31188DF
:10384000BFF36F8FBFF34F8F3B62FEE73B68022BE6
:1038500003D13B6BDB6B012B01D1012300E0002383
:10386000002B09D14FF0500383F31188BFF36F8F02
:10387000BFF34F8FFB61FEE703F008F90346002B0F
:1038800002D17B68002B01D1012300E00023002B33
:1038900009D14FF0500383F31188BFF36F8FBFF34B
:1038A0004F8FBB61FEE703F061FF3B6B9A6B3B6B95
:1038B000DB6B9A4202D33B68022B46D13B6B9B6B7E
:1038C000FB623A68B968386B00F048FEB8623B6B3F
:1038D0009B6C002B15D03B68022B02D1FB6A002B9E
:1038E0002FD13968386B01F090F80346002B28D0AF
:1038F0004A4B4FF080521A60BFF34F8FBFF36F8F68
:103900001FE03B6B5B6A002B10D03B6B24331846E7
:1039100002F092FD0346002B13D0404B4FF0805233
:103920001A60BFF34F8FBFF36F8F0AE0BB6A002BA3
:1039300007D03A4B4FF080521A60BFF34F8FBFF35E
:103940006F8F03F041FF012363E07B68002B03D1FD
:1039500003F03AFF00235CE07B6B002B06D107F1FC
:103960001003184602F050FE01237B6303F02CFF86
:1039700002F096F903F0FAFE3B6B93F844305BB229
:10398000B3F1FF3F03D13B6B002283F844203B6B34
:1039900093F845305BB2B3F1FF3F03D13B6B00229C
:1039A00083F8452003F010FF3A1D07F1100311467C
:1039B000184602F03FFE0346002B24D1386B00F07E
:1039C000F6FE0346002B18D03B6B10337A68114685
:1039D000184602F0D3FC386B00F050FE02F06EF98E
:1039E0000346002B7FF45FAF0C4B4FF080521A6000
:1039F000BFF34F8FBFF36F8F55E7386B00F03EFE7C
:103A000002F05CF94FE7386B00F038FE02F056F92F
:103A1000002318463837BD4680BD00BF04ED00E0E6
:103A200080B58EB000AFF860B9607A603B60FB682B
:103A30003B633B6B002B09D14FF0500383F311889C
:103A4000BFF36F8FBFF34F8F7B62FEE7BB68002B26
:103A500003D13B6B1B6C002B01D1012300E0002341
:103A6000002B09D14FF0500383F31188BFF36F8F00
:103A7000BFF34F8F3B62FEE73B68022B03D13B6BEA
:103A8000DB6B012B01D1012300E00023002B09D1C6
:103A90004FF0500383F31188BFF36F8FBFF34F8F45
:103AA000FB61FEE703F03CFFEFF311824FF05003A0
:103AB00083F31188BFF36F8FBFF34F8FBA617B61C0
:103AC000BB69FB623B6B9A6B3B6BDB6B9A4202D32D
:103AD0003B68022B3ED13B6B93F8453087F82B3087
:103AE0003A68B968386B00F039FD97F92B30B3F1BB
:103AF000FF3F24D13B6B9B6C002B0DD03968386B9A
:103B000000F083FF0346002B21D07B68002B1ED0E2
:103B10007B6801221A601AE03B6B5B6A002B16D0AF
:103B20003B6B2433184602F087FC0346002B0ED073
:103B30007B68002B0BD07B6801221A6007E097F8A6
:103B40002B300133DBB25AB23B6B83F845200123A3
:103B50007B6301E000237B63FB6A3B613B6983F38A
:103B600011887B6B18463837BD4680BD80B58EB056
:103B700000AF786039607B683B633B6B002B09D1F9
:103B80004FF0500383F31188BFF36F8FBFF34F8F54
:103B90003B62FEE73B6B1B6C002B09D04FF05003E0
:103BA00083F31188BFF36F8FBFF34F8FFB61FEE785
:103BB0003B6B1B68002B03D13B6B9B68002B01D137
:103BC000012300E00023002B09D14FF0500383F3C1
:103BD0001188BFF36F8FBFF34F8FBB61FEE703F018
:103BE0009FFEEFF311824FF0500383F31188BFF370
:103BF0006F8FBFF34F8F7A613B617B69FB623B6BD9
:103C00009B6BBB623B6BDA6BBB6A9A423DD93B6BE9
:103C100093F8453087F82730BB6A5A1C3B6B9A6390
:103C200097F92730B3F1FF3F24D13B6B9B6C002BFE
:103C30000DD00021386B00F0E8FE0346002B21D0A8
:103C40003B68002B1ED03B6801221A601AE03B6BD8
:103C50005B6A002B16D03B6B2433184602F0ECFB5A
:103C60000346002B0ED03B68002B0BD03B68012293
:103C70001A6007E097F827300133DBB25AB23B6B8A
:103C800083F8452001237B6301E000237B63FB6A0B
:103C9000FB60FB6883F311887B6B18463837BD46A1
:103CA00080BD80B58CB000AFF860B9607A60002349
:103CB000FB62FB68BB62BB6A002B09D14FF050036B
:103CC00083F31188BFF36F8FBFF34F8F3B62FEE723
:103CD000BB68002B03D1BB6A1B6C002B01D10123F5
:103CE00000E00023002B09D14FF0500383F311882B
:103CF000BFF36F8FBFF34F8FFB61FEE702F0C6FE8D
:103D00000346002B02D17B68002B01D1012300E088
:103D10000023002B09D14FF0500383F31188BFF328
:103D20006F8FBFF34F8FBB61FEE703F01FFDBB6AD0
:103D30009B6B7B627B6A002B1FD0B968B86A00F06E
:103D400077FC7B6A5A1EBB6A9A63BB6A1B69002BAD
:103D50000FD0BB6A1033184602F06EFB0346002BEF
:103D600007D03D4B4FF080521A60BFF34F8FBFF327
:103D70006F8F03F029FD012369E07B68002B03D1DD
:103D800003F022FD002362E0FB6A002B06D107F15D
:103D90001003184602F038FC0123FB6203F014FD07
:103DA00001F07EFF03F0E2FCBB6A93F844305BB2A3
:103DB000B3F1FF3F03D1BB6A002283F84420BB6A02
:103DC00093F845305BB2B3F1FF3F03D1BB6A0022E9
:103DD00083F8452003F0F8FC3A1D07F11003114663
:103DE000184602F027FC0346002B23D1B86A00F0E6
:103DF000A5FC0346002B17D0BB6A24337A68114612
:103E0000184602F0BBFAB86A00F038FC01F056FF21
:103E10000346002B89D1104B4FF080521A60BFF33C
:103E20004F8FBFF36F8F80E7B86A00F027FC01F077
:103E300045FF7AE7B86A00F021FC01F03FFFB86A5D
:103E400000F07CFC0346002B3FF46FAF00231846C4
:103E50003037BD4680BD00BF04ED00E080B58EB0B8
:103E600000AF7860396000237B637B68FB620023CE
:103E70003B63FB6A002B09D14FF0500383F3118899
:103E8000BFF36F8FBFF34F8F3B62FEE7FB6A1B6C84
:103E9000002B09D04FF0500383F31188BFF36F8FCD
:103EA000BFF34F8FFB61FEE702F0F0FD0346002BEE
:103EB00002D13B68002B01D1012300E00023002B3D
:103EC00009D14FF0500383F31188BFF36F8FBFF315
:103ED0004F8FBB61FEE703F049FCFB6A9B6BBB6243
:103EE000BB6A002B24D0BB6A5A1EFB6A9A63FB6A2A
:103EF0001B68002B04D102F09BFF0246FB6A9A600C
:103F0000FB6A1B69002B0FD0FB6A1033184602F0C6
:103F100093FA0346002B07D0534B4FF080521A60A0
:103F2000BFF34F8FBFF36F8F03F04EFC012396E07A
:103F30003B68002B10D13B6B002B09D04FF0500396
:103F400083F31188BFF36F8FBFF34F8F7B61FEE761
:103F500003F03AFC002382E07B6B002B06D107F1D3
:103F60000C03184602F050FB01237B6303F02CFC8A
:103F700001F096FE03F0FAFBFB6A93F844305BB263
:103F8000B3F1FF3F03D1FB6A002283F84420FB6AB0
:103F900093F845305BB2B3F1FF3F03D1FB6A0022D7
:103FA00083F8452003F010FC3A4607F10C03114654
:103FB000184602F03FFB0346002B32D1F86A00F0AE
:103FC000BDFB0346002B26D0FB6A1B68002B09D1E2
:103FD00003F0CCFBFB6A9B68184602F075FD386362
:103FE00003F0F2FBFB6A24333A681146184602F0EC
:103FF000C5F9F86A00F042FB01F060FE0346002BB1
:104000007FF469AF184B4FF080521A60BFF34F8FA7
:10401000BFF36F8F5FE7F86A00F030FB01F04EFEF0
:1040200059E7F86A00F02AFB01F048FEF86A00F050
:1040300085FB0346002B3FF44EAF3B6B002B0DD0AE
:1040400003F094FBF86A00F071FA7862FB6A9B68EF
:10405000796A184602F03CFE03F0B6FB00231846CE
:104060003837BD4680BD00BF04ED00E080B58EB09E
:1040700000AFF860B9607A6000237B63FB683B6344
:104080003B6B002B09D14FF0500383F31188BFF332
:104090006F8FBFF34F8F7B62FEE7BB68002B03D1AE
:1040A0003B6B1B6C002B01D1012300E00023002B94
:1040B00009D14FF0500383F31188BFF36F8FBFF323
:1040C0004F8F3B62FEE702F0E1FC0346002B02D17A
:1040D0007B68002B01D1012300E00023002B09D1D4
:1040E0004FF0500383F31188BFF36F8FBFF34F8FEF
:1040F000FB61FEE703F03AFB3B6B9B6BFB62FB6AE9
:10410000002B21D03B6BDB68BB62B968386B00F0D9
:104110008FFA3B6BBA6ADA603B6B5B6A002B0FD09D
:104120003B6B2433184602F087F90346002B07D077
:104130003C4B4FF080521A60BFF34F8FBFF36F8F2D
:1041400003F042FB012369E07B68002B03D103F0FD
:104150003BFB002362E07B6B002B06D107F11403CD
:10416000184602F051FA01237B6303F02DFB01F0A6
:1041700097FD03F0FBFA3B6B93F844305BB2B3F16D
:10418000FF3F03D13B6B002283F844203B6B93F845
:1041900045305BB2B3F1FF3F03D13B6B002283F8A4
:1041A000452003F011FB3A1D07F114031146184690
:1041B00002F040FA0346002B23D1386B00F0BEFA20
:1041C0000346002B17D03B6B24337A681146184600
:1041D00002F0D4F8386B00F051FA01F06FFD03469D
:1041E000002B87D10F4B4FF080521A60BFF34F8FD7
:1041F000BFF36F8F7EE7386B00F040FA01F05EFD91
:1042000078E7386B00F03AFA01F058FD386B00F0AF
:1042100095FA0346002B3FF46DAF0023184638375C
:10422000BD4680BD04ED00E080B58EB000AFF86003
:10423000B9607A60FB683B633B6B002B09D14FF0A0
:10424000500383F31188BFF36F8FBFF34F8F3B622F
:10425000FEE7BB68002B03D13B6B1B6C002B01D12D
:10426000012300E00023002B09D14FF0500383F31A
:104270001188BFF36F8FBFF34F8FFB61FEE703F031
:104280004FFBEFF311824FF0500383F31188BFF31C
:104290006F8FBFF34F8FBA617B61BB69FB623B6B72
:1042A0009B6BBB62BB6A002B2FD03B6B93F84430F7
:1042B00087F82730B968386B00F0BAF9BB6A5A1E24
:1042C0003B6B9A6397F92730B3F1FF3F12D13B6BF9
:1042D0001B69002B16D03B6B1033184602F0ACF86C
:1042E0000346002B0ED07B68002B0BD07B6801228D
:1042F0001A6007E097F827300133DBB25AB23B6B04
:1043000083F8442001237B6301E000237B63FB6A85
:104310003B613B6983F311887B6B18463837BD4698
:1043200080BD80B58CB000AF786039607B68BB62BF
:10433000BB6A002B09D14FF0500383F31188BFF300
:104340006F8FBFF34F8FFB61FEE73B68002B03D1FC
:10435000BB6A1B6C002B01D1012300E00023002B62
:1043600009D14FF0500383F31188BFF36F8FBFF370
:104370004F8FBB61FEE7BB6A1B6C002B09D14FF06E
:10438000500383F31188BFF36F8FBFF34F8F7B61AF
:10439000FEE703F0C5FAEFF311824FF0500383F309
:1043A0001188BFF36F8FBFF34F8F3A61FB603B699A
:1043B0007B62BB6A9B6B002B0CD0BB6ADB683B62E9
:1043C0003968B86A00F034F9BB6A3A6ADA600123E6
:1043D000FB6201E00023FB627B6ABB60BB6883F386
:1043E0001188FB6A18463037BD4680BD80B584B061
:1043F00000AF78607B68002B09D14FF0500383F346
:104400001188BFF36F8FBFF34F8FBB60FEE703F0E0
:10441000ADF97B689B6BFB6003F0D6F9FB6818462F
:104420001037BD4680BD80B586B000AF78607B6830
:104430007B617B69002B09D14FF0500383F3118816
:10444000BFF36F8FBFF34F8FFB60FEE703F08EF972
:104450007B69DA6B7B699B6BD31A3B6103F0B4F920
:104460003B6918461837BD4680BD80B487B000AFA1
:1044700078607B687B617B69002B09D14FF050032A
:1044800083F31188BFF36F8FBFF34F8FFB60FEE79D
:104490007B699B6B3B613B6918461C37BD465DF8E9
:1044A000047B704780B584B000AF78607B68FB60A8
:1044B000FB68002B09D14FF0500383F31188BFF341
:1044C0006F8FBFF34F8FBB60FEE7F86800F0FAF91B
:1044D000F868FEF743F900BF1037BD4680BD80B4D1
:1044E00083B000AF78607B68DB6C18460C37BD4644
:1044F0005DF8047B704780B483B000AF78603960AA
:104500007B683A68DA6400BF0C37BD465DF8047B0F
:10451000704780B483B000AF78607B6893F8503008
:1045200018460C37BD465DF8047B704780B485B0F3
:1045300000AF78607B685B6A002B06D07B681B6BE2
:104540001B68C3F10703FB6001E00023FB60FB680D
:1045500018461437BD465DF8047B704780B586B0B9
:1045600000AFF860B9607A6000237B61FB689B6BE9
:104570003B61FB681B6C002B0DD1FB681B68002B9B
:104580004DD1FB689B68184602F01EFB7861FB6802
:1045900000229A6043E07B68002B19D1FB685868C1
:1045A000FB681B6C1A46B96827F082FAFB685A68E8
:1045B000FB681B6C1A44FB685A60FB685A68FB680E
:1045C0009B689A422BD3FB681A68FB685A6026E006
:1045D000FB68D868FB681B6C1A46B96827F068FA54
:1045E000FB68DA68FB681B6C5B421A44FB68DA60A4
:1045F000FB68DA68FB681B689A4207D2FB689A6816
:10460000FB681B6C5B421A44FB68DA607B68022B18
:1046100005D13B69002B02D03B69013B3B613B6903
:104620005A1CFB689A637B6918461837BD4680BDE3
:1046300080B582B000AF786039607B681B6C002B5E
:1046400018D07B68DA687B681B6C1A447B68DA6078
:104650007B68DA687B689B689A4203D37B681A6838
:104660007B68DA607B68D9687B681B6C1A4638689F
:1046700027F01EFA00BF0837BD4680BD80B584B064
:1046800000AF786003F072F87B6893F84530FB73F5
:104690001FE07B689B6C002B09D00021786800F03C
:1046A000B4F90346002B10D002F024F80DE07B682B
:1046B0005B6A002B12D07B682433184601F0BCFEE5
:1046C0000346002B01D002F015F8FB7B013BDBB267
:1046D000FB7397F90F30002BDBDC00E000BF7B6839
:1046E000FF2283F8452003F06FF803F03FF87B6862
:1046F00093F84430BB7311E07B681B69002B12D028
:104700007B681033184601F097FE0346002B01D05A
:1047100001F0F0FFBB7B013BDBB2BB7397F90E30BE
:10472000002BE9DC00E000BF7B68FF2283F8442017
:1047300003F04AF800BF1037BD4680BD80B584B095
:1047400000AF786003F012F87B689B6B002B02D1FE
:104750000123FB6001E00023FB6003F035F8FB68F8
:1047600018461037BD4680BD80B487B000AF786072
:104770007B683B613B69002B09D14FF0500383F309
:104780001188BFF36F8FBFF34F8FFB60FEE73B696C
:104790009B6B002B02D101237B6101E000237B6135
:1047A0007B6918461C37BD465DF8047B704780B5B1
:1047B00084B000AF786002F0D9FF7B689A6B7B68A9
:1047C000DB6B9A4202D10123FB6001E00023FB6016
:1047D00002F0FAFFFB6818461037BD4680BD80B472
:1047E00087B000AF78607B683B613B69002B09D1E3
:1047F0004FF0500383F31188BFF36F8FBFF34F8FD8
:10480000FB60FEE73B699A6B3B69DB6B9A4202D126
:1048100001237B6101E000237B617B6918461C3723
:10482000BD465DF8047B704780B485B000AF78600A
:1048300039600023FB6014E00E4AFB6852F8333005
:10484000002B0BD10B49FB683A6841F83320094A29
:10485000FB68DB0013447A685A6005E0FB680133AB
:10486000FB60FB68072BE7D900BF1437BD465DF836
:10487000047B70478CF7002080B485B000AF78606F
:104880000023BB600023FB6010E00D4AFB68DB00E7
:1048900013445A687B689A4205D1094AFB6852F86A
:1048A0003330BB6005E0FB680133FB60FB68072B1E
:1048B000EBD9BB6818461437BD465DF8047B7047DA
:1048C0008CF7002080B485B000AF78600023FB60D7
:1048D00016E0104AFB68DB0013445A687B689A4272
:1048E0000BD10C4AFB68002142F83310094AFB68DF
:1048F000DB00134400225A6005E0FB680133FB60D3
:10490000FB68072BE5D900BF1437BD465DF8047B73
:10491000704700BF8CF7002080B584B000AF78608E
:10492000002204217868FEF737FEF860FB6818461D
:104930001037BD4680BD80B584B000AF7860396067
:1049400002F014FF7B689B6C002B02D00023FB60FD
:104950000BE07B689B6B002B02D00023FB6004E024
:104960007B683A689A640123FB6002F02DFFFB68C4
:1049700018461037BD4680BD80B584B000AF786062
:1049800039607B68BB60BB689A6C3B689A4202D016
:104990000023FB600FE0BB689B6B002B02D0002361
:1049A000FB6008E002F0E2FEBB6800229A6402F0BD
:1049B0000BFF0123FB60FB6818461037BD4680BD26
:1049C00080B584B000AF786039600023FB6007F1E8
:1049D0000C033A6819467868FFF763F9FB681846D4
:1049E0001037BD4680BD80B584B000AF786000232D
:1049F000FB6007F10C03002219467868FFF714FCEE
:104A0000FB6818461037BD4680BD80B588B000AF42
:104A1000786039607B689B6CBB610023FB61BB697C
:104A2000002B09D14FF0500383F31188BFF36F8F30
:104A3000BFF34F8F3B61FEE7BB699A6BBB69DB6BD2
:104A40009A4209D34FF0500383F31188BFF36F8F5D
:104A5000BFF34F8FFB60FEE7BB699A6BBB69DB6BF3
:104A60009A4225D2BB6993F84530FB753B1D3A68E5
:104A70001946B869FFF772FDF86197F91730B3F17D
:104A8000FF3F0ED1BB695B6A002B11D0BB69243399
:104A9000184601F0D1FC0346002B09D00123FB612D
:104AA00006E0FB7D0133DBB25AB2BB6983F84520D7
:104AB000FB6918462037BD4680BD00BF80B483B077
:104AC00000AF78607B6803F108027B685A607B68FE
:104AD0004FF0FF329A607B6803F108027B68DA606E
:104AE0007B6803F108027B681A617B6800221A6008
:104AF00000BF0C37BD465DF8047B704780B483B0BF
:104B000000AF78607B6800221A6100BF0C37BD4699
:104B10005DF8047B704780B485B000AF7860396081
:104B20007B685B68FB603B68FA685A60FB689A6860
:104B30003B689A60FB689B683A685A60FB683A6811
:104B40009A603B687A681A617B681B685A1C7B68AC
:104B50001A6000BF1437BD465DF8047B704780B40F
:104B600085B000AF786039603B681B68BB60BB688C
:104B7000B3F1FF3F03D17B681B69FB600CE07B68EE
:104B80000833FB6002E0FB685B68FB60FB685B6806
:104B90001A68BB689A42F6D9FB685A683B685A6043
:104BA0003B685B683A689A603B68FA689A60FB68A1
:104BB0003A685A603B687A681A617B681B685A1CBD
:104BC0007B681A6000BF1437BD465DF8047B7047F0
:104BD00080B485B000AF78607B681B69FB607B6840
:104BE0005B687A6892689A607B689B687A685268AA
:104BF0005A60FB685A687B689A4203D17B689A685E
:104C0000FB685A607B6800221A61FB681B685A1EA9
:104C1000FB681A60FB681B6818461437BD465DF8D0
:104C2000047B704780B582B000AF1C20FDF708FD03
:104C300078607B68002B07D07B6800221A607B6855
:104C400004331846FFF73AFF7B6818460837BD461D
:104C500080BD80B58CB000AFF860B9607A603B6011
:104C6000FB68BB6200237B627B6803F07F43002B01
:104C700009D04FF0500383F31188BFF36F8FBFF358
:104C80004F8FBB61FEE77B68002B09D14FF05003CB
:104C900083F31188BFF36F8FBFF34F8F7B61FEE704
:104CA00001F0F4FE0346002B02D13B68002B01D13A
:104CB000012300E00023002B09D14FF0500383F3C0
:104CC0001188BFF36F8FBFF34F8F3B61FEE700F09A
:104CD000E7FFBB6A1B683B62B968F86800F087F9B8
:104CE0003A6ABB681A437B681A407B689A420DD1C6
:104CF0003A6ABB681343FB62BB6A1A687B68DB4392
:104D00001A40BB6A1A6000233B6013E03B68002B2B
:104D10000BD0BB6A181D7B6843F0A0633A68194644
:104D200001F050FB0023FB6204E0BB6A1B68FB62DE
:104D300001237B6200F0C2FFF8613B68002B2CD09E
:104D4000FB69002B07D1174B4FF080521A60BFF35D
:104D50004F8FBFF36F8F02F053F8F862FB6A03F0D6
:104D60000073002B15D102F001FDBB6A1B68FB62CA
:104D7000FA6A7B681A407B689A4206D1BB6A1A6855
:104D80007B68DB431A40BB6A1A6002F01DFD0123F9
:104D90007B62FB6A23F07F43FB62FB6A1846303775
:104DA000BD4680BD04ED00E080B590B000AFF86076
:104DB000B9607A603B60FB687B630023BB630023C0
:104DC0003B63FB68002B09D14FF0500383F311883C
:104DD000BFF36F8FBFF34F8F3B62FEE7BB6803F0FB
:104DE0007F43002B09D04FF0500383F31188BFF3AA
:104DF0006F8FBFF34F8FFB61FEE7BB68002B09D1BC
:104E00004FF0500383F31188BFF36F8FBFF34F8FC1
:104E1000BB61FEE701F03AFE0346002B02D1BB6CFA
:104E2000002B01D1012300E00023002B09D14FF01A
:104E3000500383F31188BFF36F8FBFF34F8F7B61F4
:104E4000FEE700F02DFF7B6B1B68FB623A68B968D8
:104E5000F86A00F09FF9B862BB6A002B0ED0FB6ABB
:104E6000FB630023BB647B68002B28D07B6B1A6834
:104E7000BB68DB431A407B6B1A6020E0BB6C002BE5
:104E800004D1FB6AFB6301233B6318E07B68002BC2
:104E900003D0BB6B43F08073BB633B68002B03D034
:104EA000BB6B43F08063BB637B6B181DBA68BB6B45
:104EB0001343BA6C194601F085FA0023FB6300F036
:104EC000FDFE7862BB6C002B31D07B6A002B07D1D2
:104ED000194B4FF080521A60BFF34F8FBFF36F8FA3
:104EE00001F08EFFF863FB6B03F00073002B1AD107
:104EF00002F03CFC7B6B1B68FB633A68B968F86B9B
:104F000000F048F90346002B09D07B68002B06D03F
:104F10007B6B1A68BB68DB431A407B6B1A6001230A
:104F20003B6302F051FCFB6B23F07F43FB63FB6BA5
:104F300018464037BD4680BD04ED00E080B586B020
:104F400000AF786039607B687B617B68002B09D19A
:104F50004FF0500383F31188BFF36F8FBFF34F8F70
:104F6000FB60FEE73B6803F07F43002B09D04FF066
:104F7000500383F31188BFF36F8FBFF34F8FBB6074
:104F8000FEE702F0F3FB7B691B683B617B691A68F3
:104F90003B68DB431A407B691A6002F015FC3B69F1
:104FA00018461837BD4680BD80B489B000AF786020
:104FB0007B68FB61EFF311824FF0500383F311889C
:104FC000BFF36F8FBFF34F8FFA60BB60FB68BB61AD
:104FD000FB691B687B61BB693B613B6983F311889B
:104FE0007B6918462437BD465DF8047B704780B561
:104FF0008EB000AF7860396000233B637B68BB6292
:105000000023FB627B68002B09D14FF0500383F330
:105010001188BFF36F8FBFF34F8F3B61FEE73B6893
:1050200003F07F43002B09D04FF0500383F3118826
:10503000BFF36F8FBFF34F8FFB60FEE7BB6A043394
:105040007B627B6A08333B6200F02AFE7B6ADB6886
:105050007B63BB6A1A683B681A43BB6A1A603CE010
:105060007B6B5B68FB617B6B1B68BB610023FB6236
:10507000BB6903F07F437B61BB6923F07F43BB6166
:105080007B6903F08063002B08D1BB6A1A68BB6997
:105090001340002B0BD00123FB6208E0BB6A1A68A7
:1050A000BB691A40BB699A4201D10123FB62FB6ACA
:1050B000002B10D07B6903F08073002B03D03A6B78
:1050C000BB6913433B63BB6A1B6843F0007319461B
:1050D000786B01F013FAFB697B637A6B3B6A9A4247
:1050E000BED1BB6A1A683B6BDB431A40BB6A1A60CD
:1050F00000F0E4FDBB6A1B6818463837BD4680BD2A
:1051000080B586B000AF78607B687B617B690433D3
:105110003B6100F0C5FD16E03B69DA683B69083386
:105120009A4209D14FF0500383F31188BFF36F8F78
:10513000BFF34F8FFB60FEE73B69DB684FF0007108
:10514000184601F0DBF93B691B68002BE4D1786954
:10515000FDF704FB00F0B2FD00BF1837BD4680BD6F
:1051600080B582B000AF7860396039687868FFF741
:105170003EFF00BF0837BD4680BD80B582B000AF9E
:105180007860396039687868FFF7D8FE00BF083763
:10519000BD4680BD80B487B000AFF860B9607A606A
:1051A00000237B617B68002B07D1FA68BB68134042
:1051B000002B0AD001237B6107E0FA68BB681A4024
:1051C000BB689A4201D101237B617B6918461C3779
:1051D000BD465DF8047B704780B485B000AF786051
:1051E0007B68BB607B68002B02D10023FB6002E080
:1051F000BB689B69FB60FB6818461437BD465DF8C9
:10520000047B704780B483B000AF786039607B68FE
:105210003A689A6100BF0C37BD465DF8047B704761
:1052200080B58CB004AFF860B9603B601346FB807A
:10523000FB889B001846FDF703FA78617B69002B19
:105240000ED05C20FDF7FCF9F861FB69002B03D060
:10525000FB697A691A6305E07869FDF77FFA01E076
:105260000023FB61FB69002B13D0FA880023039312
:10527000FB690293FB6A0193BB6A00933B68B968C0
:10528000F86800F00EF8F86900F099F80123BB61A6
:1052900002E04FF0FF33BB61BB6918462037BD46C3
:1052A00080BD80B588B000AFF860B9607A603B60BF
:1052B0003B6B186B7B689B001A46A52126F092FC7D
:1052C0003B6B1A6B7B6803F18043013B9B001344EB
:1052D000BB61BB6923F00703BB61BB6903F0070334
:1052E000002B09D04FF0500383F31188BFF36F8F69
:1052F000BFF34F8F7B61FEE7BB68002B1FD00023FD
:10530000FB6112E0BA68FB69134419783A6BFB69D8
:10531000134434330A461A70BA68FB6913441B7885
:10532000002B06D0FB690133FB61FB690F2BE9D928
:1053300000E000BF3B6B002283F8432003E03B6B9F
:10534000002283F83420BB6A062B01D90623BB62F6
:105350003B6BBA6ADA623B6BBA6ADA643B6B002277
:105360001A653B6B04331846FFF7C8FB3B6B1833D9
:105370001846FFF7C3FB3B6B3A6B1A61BB6AC3F17C
:1053800007023B6B9A613B6B3A6B5A623B6B0022A4
:105390005A653B6B002283F858203A68F968B8696F
:1053A00002F0A6F802463B6B1A60FB6A002B02D0A3
:1053B000FB6A3A6B1A6000BF2037BD4680BD80B5DE
:1053C00082B000AF786002F0D1F92D4B1B68013339
:1053D0002B4A13602B4B1B68002B09D1294A7B6891
:1053E0001360274B1B68012B10D101F0CFF90DE0A2
:1053F000254B1B68002B09D1224B1B68DA6A7B689E
:10540000DB6A9A4202D81F4A7B6813601F4B1B68F5
:1054100001331E4A13601D4B1A687B685A647B680F
:10542000DB6A01229A401A4B1B681343184A136027
:105430007B68DA6A13469B0013449B00154A1A44A2
:105440007B68043319461046FFF765FB02F0BCF990
:105450000D4B1B68002B0ED00A4B1B68DA6A7B6869
:10546000DB6A9A4207D20C4B4FF080521A60BFF3AE
:105470004F8FBFF36F8F00BF0837BD4680BD00BFA1
:1054800040F1002040F000204CF100205CF10020B1
:1054900048F1002044F0002004ED00E080B584B025
:1054A00000AF786002F062F97B68002B02D1384BC4
:1054B0001B6800E07B68FB60FB6804331846FFF75D
:1054C00087FB0346002B15D1FB68DA6A3149134686
:1054D0009B0013449B000B441B68002B0AD1FB6804
:1054E000DB6A012202FA03F3DA432B4B1B681340F9
:1054F000294A1360FB689B6A002B04D0FB681833B1
:105500001846FFF765FB254B1B680133234A1360E0
:105510001F4B1B68FA689A420BD1FB68043319468B
:105520001F48FFF7F8FA1F4B1B6801331D4A136031
:1055300009E01D4B1B68013B1B4A1360F86801F032
:1055400065FA01F073FA02F03FF9184B1B68002B63
:105550001AD00F4B1B68FA689A4215D1144B1B687E
:10556000002B09D04FF0500383F31188BFF36F8FE6
:10557000BFF34F8FBB60FEE70E4B4FF080521A60B7
:10558000BFF34F8FBFF36F8F00BF1037BD4680BD95
:1055900040F0002044F0002048F100205CF10020A1
:1055A00014F1002028F1002040F100204CF10020EF
:1055B00068F1002004ED00E080B584B000AF7860B1
:1055C0000023FB607B68002B16D0134B1B68002B5D
:1055D00009D04FF0500383F31188BFF36F8FBFF3EF
:1055E0004F8FBB60FEE700F05BFB0021786801F0A5
:1055F00013FF00F063FBF860FB68002B07D1074B3B
:105600004FF080521A60BFF34F8FBFF36F8F00BF10
:105610001037BD4680BD00BF68F1002004ED00E0FA
:1056200080B588B000AF78607B68BB61BB69002B38
:1056300009D14FF0500383F31188BFF36F8FBFF38D
:105640004F8FBB60FEE7244B1B68BA699A4202D1B8
:105650000023FB773AE002F089F8BB695B697B6164
:105660001E4B1B683B611E4B1B68FB6002F0ACF8D5
:105670007A693B699A4203D07A69FB689A4202D1FF
:105680000223FB7722E07B69164A934212D1BB6961
:105690009B6A002B0BD1BB6993F85830DBB2012B0E
:1056A00002D10223FB7711E00323FB770EE00223F4
:1056B000FB770BE07B690C4A934202D07B69002B9D
:1056C00002D10423FB7701E00123FB77FB7F18461F
:1056D0002037BD4680BD00BF40F00020F8F000201C
:1056E000FCF000202CF1002014F1002080B584B0E3
:1056F00000AF786002F03AF87B68002B02D1074BCC
:105700001B6800E07B68FB60FB68DB6ABB6002F043
:105710005BF8BB6818461037BD4680BD40F00020DE
:1057200080B588B000AF786002F0FAF8EFF311822C
:105730004FF0500383F31188BFF36F8FBFF34F8F88
:105740003A61FB603B69FB617B68002B02D1094B2E
:105750001B6800E07B68BB61BB69DB6A7B61FB693E
:10576000BB60BB6883F311887B6918462037BD4650
:1057700080BD00BF40F0002080B588B000AF7860E9
:1057800039600023FB613B68062B09D94FF05003B9
:1057900083F31188BFF36F8FBFF34F8FFB60FEE77A
:1057A0003B68062B01D906233B6001F0DFFF7B68D5
:1057B000002B02D1404B1B6800E07B68BB61BB69DA
:1057C000DB6C7B617A693B689A426FD03A687B698F
:1057D0009A420DD9384B1B68BA699A420FD0364BA2
:1057E0001B68DA6A3B689A4209D80123FB6106E02C
:1057F000314B1B68BA699A4201D10123FB61BB6935
:10580000DB6A3B61BB69DA6CBB69DB6A9A4202D135
:10581000BB693A68DA62BB693A68DA64BB699B695A
:10582000002B04DB3B68C3F10702BB699A61BB69CB
:1058300059693A6913469B0013449B001F4A13445D
:10584000994228D1BB6904331846FFF7C1F90346D2
:10585000002B09D101223B6902FA03F3DA43184B0A
:105860001B681340164A1360BB69DB6A01229A4029
:10587000134B1B681343124A1360BB69DA6A134661
:105880009B0013449B000D4A1A44BB69043319461C
:105890001046FFF740F9FB69002B07D0094B4FF08A
:1058A00080521A60BFF34F8FBFF36F8F01F08CFFF0
:1058B00000BF2037BD4680BD40F0002044F00020EE
:1058C00048F1002004ED00E080B584B000AF7860BE
:1058D00001F04CFF7B68002B02D13C4B1B6800E0C1
:1058E0007B68FB60FB6804331846FFF771F90346D9
:1058F000002B15D1FB68DA6A354913469B00134427
:105900009B000B441B68002B0AD1FB68DB6A012259
:1059100002FA03F3DA432F4B1B6813402D4A13603E
:10592000FB689B6A002B04D0FB6818331846FFF70E
:105930004FF9FB68043319462748FFF7ECF8FB687A
:1059400093F85830DBB2012B03D1FB68002283F8B7
:10595000582001F039FF214B1B68002B05D001F0C6
:1059600005FF01F063F801F02FFF184B1B68FA6880
:105970009A4226D1194B1B68002B16D0184B1B6876
:10598000002B09D04FF0500383F31188BFF36F8FC2
:10599000BFF34F8FBB60FEE7124B4FF080521A608F
:1059A000BFF34F8FBFF36F8F0BE00B4B1A680E4B9B
:1059B0001B689A4203D1054B00221A6001E000F0F7
:1059C00083FC00BF1037BD4680BD00BF40F0002003
:1059D00044F0002048F100202CF100204CF1002080
:1059E00068F1002004ED00E040F1002080B487B0B1
:1059F00000AF786000237B617B683B617B68002B94
:105A000009D14FF0500383F31188BFF36F8FBFF3B9
:105A10004F8FFB60FEE73B695B690A4A93420AD1FC
:105A20003B699B6A084A934205D03B699B6A002BFD
:105A300001D101237B617B6918461C37BD465DF8A7
:105A4000047B70472CF1002000F1002080B584B069
:105A500000AF78607B68FB607B68002B09D14FF05A
:105A6000500383F31188BFF36F8FBFF34F8FBB6079
:105A7000FEE7204B1B68FA689A4237D0FB68002B80
:105A800034D001F073FEF868FFF7B0FF0346002B37
:105A90002AD0FB6804331846FFF79AF8FB68DB6AE4
:105AA00001229A40144B1B681343134A1360FB688E
:105AB000DA6A13469B0013449B00104A1A44FB68A1
:105AC000043319461046FFF726F8FB68DA6A094BDB
:105AD0001B68DB6A9A4207D3094B4FF080521A6069
:105AE000BFF34F8FBFF36F8F01F06EFE00BF103713
